:020000040800F2
:1000000000A000202D010008290100082901000896
:08001000700200000100000075
:100018001000000000000000017A5200027C0E016E
:100028001B0C0D001C000000180000004C02000012
:10003800D800000000410E088501840202490A4ADE
:10004800C5C4410B1400000038000000A8030000DC
:0C005800340100000002710A430B00009C
:1000800008B500F015F800F015F8064900F0E0F8A2
:1000900018B1054800F012F8FEE7044800F00EF829
:1000A000FAE700BF00002042B8130008DC13000884
:1000B000704700BF004870470000124210B5044668
:1000C00000F0DEF821460246BDE81040012000F0B5
:1000D0002FBA00BF4FF0FF30704700BF4FF40053FE
:1000E0000B600020704700BF012070470020704760
:1000F00010467047FEE700BF4FF0FF30704700BF6B
:1001000001207047044A05491368002B08BF0B46BD
:10011000184410601846704748050020C0060020AB
:100120000020704700207047FEE700BF0D480E4AD0
:10013000904208B507D2013A121A22F003020B4985
:10014000043200F05BF90A480A4A904207D2013AA9
:10015000121A22F003020432002100F0FDF8FFF72A
:100160008FFFFEE70000002048050020F413000880
:1001700048050020C00600204FF0FF3C06E000BF0D
:100180004FF0010C02E000BF4FF0010C4DF804CD20
:100190004FEA40024FEA41037FEA226C18BF7FEA30
:1001A000236C11D001B052EA530C18BF90EA010F32
:1001B00058BFB2EB030088BFC81738BF6FEAE170C1
:1001C00018BF40F0010070477FEA226C02D15FEA5D
:1001D000402C05D17FEA236CE4D15FEA412CE1D0C9
:1001E0005DF8040B704700BF844608466146FFE790
:1001F0000FB5FFF7C9FF002848BF10F1000F0FBD72
:100200004DF808EDFFF7F4FF0CBF012000205DF86A
:1002100008FB00BF4DF808EDFFF7EAFF34BF0120EF
:1002200000205DF808FB00BF4DF808EDFFF7E0FF88
:1002300094BF012000205DF808FB00BF4DF808EDD9
:10024000FFF7D2FF94BF012000205DF808FB00BF3C
:100250004DF808EDFFF7C8FF34BF012000205DF81E
:1002600008FB00BF000000000000000000000000CC
:10027000000000000000000000000000000000007E
:1002800030B490F800F020F007016FF0000C10F08F
:10029000070491F820F040F048804FF000046FF020
:1002A0000700D1E9002391F840F000F1080082FA3C
:1002B0004CF2A4FA8CF283FA4CF3A2FA8CF34BBB07
:1002C000D1E9022382FA4CF200F10800A4FA8CF280
:1002D00083FA4CF3A2FA8CF3E3B9D1E9042382FA4E
:1002E0004CF200F10800A4FA8CF283FA4CF3A2FA63
:1002F0008CF37BB9D1E9062301F1200182FA4CF29B
:1003000000F10800A4FA8CF283FA4CF3A2FA8CF301
:10031000002BC6D0002A04BF04301A4612BAB2FA23
:1003200082F200EBD20030BC7047D1E9002304F028
:100330000305C4F100004FEAC50514F0040F91F85D
:1003400040F00CFA05F562EA05021CBF63EA0503FA
:1003500062464FF00004AAE7830730B547D0541E29
:10036000002A3ED0CAB2034601E0013C39D303F86B
:10037000012B9D07F9D1032C2CD9CDB205EB052516
:100380000F2C05EB054535D9A4F1100222F00F0C16
:1003900003F1100EE6444FEA121C1A46C2E900555A
:1003A000C2E9025510327245F8D10CF1010214F085
:1003B0000C0F03EB021204F00F0C13D0ACF104038A
:1003C00023F003030433134442F8045B9342FBD14C
:1003D0000CF003042CB1C9B21C4403F8011BA34266
:1003E000FBD130BD64461346002CF4D1F9E7034637
:1003F0001446C0E71A46A446E0E700BF844641EA37
:10040000000313F003036DD1403A41D351F8043B8C
:1004100040F8043B51F8043B40F8043B51F8043BDE
:1004200040F8043B51F8043B40F8043B51F8043BCE
:1004300040F8043B51F8043B40F8043B51F8043BBE
:1004400040F8043B51F8043B40F8043B51F8043BAE
:1004500040F8043B51F8043B40F8043B51F8043B9E
:1004600040F8043B51F8043B40F8043B51F8043B8E
:1004700040F8043B51F8043B40F8043B51F8043B7E
:1004800040F8043B51F8043B40F8043B403ABDD2ED
:10049000303211D351F8043B40F8043B51F8043B8F
:1004A00040F8043B51F8043B40F8043B51F8043B4E
:1004B00040F8043B103AEDD20C3205D351F8043B1E
:1004C00040F8043B043AF9D2043208D0D2071CBFEA
:1004D00011F8013B00F8013B01D30B880380604613
:1004E000704700BF082A13D38B078DD010F0030389
:1004F0008AD0C3F10403D21ADB071CBF11F8013BF9
:1005000000F8013B80D331F8023B20F8023B7BE747
:10051000043AD9D3013A11F8013B00F8013BF9D272
:100520000B7803704B7843708B788370604670470C
:1005300010B4044C84461346206810BC0A46614639
:1005400000F002B80000002038B50C46084D844683
:10055000114620461A4600232B606446FFF7C8FD6B
:10056000431C00D038BD2B68002BFBD0236038BD66
:10057000BC06002000207047024A0349034800F0EF
:100580000BB900BF28010020E90F00080800002077
:100590000C4B4168994210B5044601D000F024FD8F
:1005A000A168094B994202D0204600F01DFDE16888
:1005B000064B994204D02046BDE8104000F014BD1F
:1005C00010BD00BF4C050020B40500201C06002013
:1005D000002070472DE9F8432A4C2B49DFF8AC90F6
:1005E000DFF8AC802B4FC4F8381100250423082213
:1005F000294604F15C00284EE360C4E90055C4E9D3
:100600000455A5606566A561FFF7A6FE234B6367E9
:100610000822294604F1C400C4E90749C4E909874E
:10062000C4E91A55C4E91E552567C4F8CC50C4F86E
:100630008050E662FFF790FE194BC4F8DC30294683
:1006400004F16803082204F59670C4F88430C4E904
:100650002298C4E92476C4E93455C4E93855C4F86D
:10066000D850C4F83451C4F8E850FFF775FE04F1CF
:10067000D003C4E93C98C4E93E76C4F8EC30BDE848
:10068000F88300BF4C05002079050008951000088C
:10069000BD100008FD10000821110008090001002C
:1006A00012000200F8B5254BD3F838310646002B6E
:1006B0003CD0234FD7E90134013B04D51DE05A1C3F
:1006C00004F1680419D0B4F90C50013B002DF6D1A7
:1006D0001C4BE360C4E90155C4E904556566256017
:1006E000A5610822294604F15C00FFF735FEC4E944
:1006F0000C55C4E911552046F8BD3D680DB12F4693
:10070000D8E74FF4D671304600F068F8044680B15F
:100710000423C0E900530C302946A0604FF4D07286
:100720002546FFF719FE3C602F46C3E7FFF752FF4F
:10073000BFE70C2338603360DDE700BF4C050020C5
:10074000280100200100FFFF436B03B17047044BF9
:10075000044AD3F838314263002BF7D13AE700BF9F
:100760004C05002091050008704700BF704700BF8E
:10077000024A0349002000F00FB800BF2801002002
:1007800075050008024A0349002000F005B800BFC3
:1007900028010020D10500082DE9F84307468846C6
:1007A00016464FF00009D6E90154013D10D4A38943
:1007B000012B08D9B4F90E3001332146384602D056
:1007C000C04749EA0009013D6B1C04F16804EED101
:1007D0003668002EE7D14846BDE8F8832DE9F04F92
:1007E00001F10B05162D83B0064623D8102900F21F
:1007F000AF8000F0CFFC102518230220C14F3B44EE
:10080000A3F108025C68944200F025816368E26805
:10081000A16823F00303CA602344304691605A68FC
:1008200042F001025A6000F0B7FC0834204603B0E1
:10083000BDE8F08F35F0070500F18A80A94200F28B
:10084000878000F0A7FCB5F5FC7FC0F06D816B0AD6
:1008500000F08280042B00F22481AB0903F13900FF
:1008600003F1380EC300A74F3B44A3F1080C5C68AA
:10087000A44507D10DE0002AE16880F2E6808C45AE
:1008800007D00C46636823F003035A1B0F2AF2DDDE
:100890007046DFF874823C69444500F0C3806368A9
:1008A00023F0030CACEB05030F2B00F34181002B6D
:1008B000C7E9048880F22C81BCF5007FD7F804E0FA
:1008C00080F0CF804FEADC0101314FEA5C1C01234C
:1008D00003FA0CF357F83120A2604EEA030E07EB3F
:1008E000C103083BE360C7F804E047F83140D46037
:1008F00083104FF0010C0CFA03FCF44532D81CEACB
:100900000E0F08D120F003004FEA4C0C1CEA0E0F2A
:1009100000F10400F8D007EBC00AD6468146DEF8A5
:100920000C300BE0596821F003014A1B0F2A1C46CA
:10093000DB6800F3C280002A80F2D6809E45F1D1A8
:1009400009F1010919F0030F0EF1080EE7D118E1C2
:100950000C233360002469E74FF4007340204FF00C
:100960003F0E80E7BC68636823F00309A94503D301
:10097000A9EB05030F2B58DCDFF890B1DBF8002062
:1009800004EB09031032082002EB0508009300F085
:1009900073FBD7F808140131024605D008F1FF387F
:1009A0008044414201EA080841463046009200F086
:1009B000F5FBB0F1FF3F009A824600F0D48004EBD3
:1009C0000903834200F2CD80DBF804104144CBF8E8
:1009D0000410084602F1FF3C40F0F5801AEA0C0FC3
:1009E00040F0F180D7F808A0C84448F00100CAF8E8
:1009F0000400DBF82C208A42DBF8302038BFCBF82B
:100A00002C108A4238BFCBF83010544620F003082F
:100A1000A845A8EB050301D30F2B06DC304600F0F8
:100A2000BBFB97E7D7F804E062E7621943F00103E4
:100A300045F0010565603046BA60536000F0ACFBDC
:100A40000834204603B0BDE8F08FA2682344D1608B
:100A500030468A60E3E6DC68A3427FF4D7AE02301A
:100A600017E7BCF5206F4FEA5C2273D3142A00F21B
:100A70000A8102F15C03DB005B32F918FB5808398C
:100A8000994203D1E6E09B68994204D05A6822F06B
:100A900003026245F7D8D968C4E902318C60DC6092
:100AA00026E7142B62D9542B00F2F6802B0B03F1AE
:100AB0006F0003F16E0EC300D5E6D4F808C03046CF
:100AC000661945F001056560CCF80C30C3F808C024
:100AD00042F00103C7E90466C6E902887360625008
:100AE00000F05AFB0834A1E6214430464A6842F03F
:100AF00001024A6054F8082FD3609A6000F04CFB62
:100B000094E600BF38010020400100208806002044
:100B1000A4443046DCF8043043F00103CCF8043040
:100B200000F03AFB083481E6E80805F1080365E6C1
:100B3000621943F0010145F0010565603046C7E9DF
:100B40000422C2E90288516044F80C3000F024FB12
:100B500008346BE64FEA9C1202F13903DB003832AD
:100B60008BE7BC4228D0BC6860684FE703F15C00AB
:100B700003F15B0EC30076E65AF80839534540F09E
:100B8000D88010F0030F00F1FF30F5D17B6823EA25
:100B90000C037B604FEA4C0C9C453FF6E3AEBCF186
:100BA000000F04D1DEE64FEA4C0C09F104091CEAFF
:100BB000030FF8D04846AEE6DBF804004044CBF81B
:100BC000040002F1FF3CD7F8081401316ED004EBA9
:100BD0000903AAEB03031844CBF804001AF0070337
:100BE000009341D0C3F108018A44D0440A4408EA82
:100BF0000C01521A02EA0C013046019100F0CEFAC3
:100C0000421C6FD00199A0EB0A0000EB0108DBF851
:100C10000420C7F808A048F001001144BC42CAF8FB
:100C20000400CBF804103FF4E4AEB9F10F0F40D943
:100C30006268A9F10C0020F0070002F001020243F3
:100C40006260052322180F28C2E9013352D8DAF86E
:100C50000400CEE692104FF0010C0CFA02F24EEABC
:100C6000020EC7F804E017E70AEB080101EA0C01DD
:100C7000521A02EA0C013046019100F08FFA431C2F
:100C8000C0D10099C3E7542A17D84FEA1C3202F1A9
:100C90006F03DB006E32F0E6B3F5AA7F17D8EB0BDB
:100CA00003F1780003F1770EC300DCE5C7F808A470
:100CB00094E70123CAF80430B0E6B2F5AA7F23D83E
:100CC0004FEADC3202F17803DB007732D5E640F2FE
:100CD0005452934223D8AB0C03F17D0003F17C0EF8
:100CE000C300C0E5009BA3F108029044A8EB0A08EA
:100CF00000218CE704F10801304600F079F8DBF8B8
:100D00000410D7F808A0A2E740F254539A420CD836
:100D10004FEA9C4202F17D03DB007C32ADE64FF4EA
:100D20007E737F204FF07E0E9DE54FF47E737E2212
:100D3000A3E67B682EE700BF2DE9F84306460820AE
:100D4000894600F099F9DFF89C800546304600F0AE
:100D500021FAD8F808305F6827F00307A7F11104DB
:100D6000A4EB09042C44B4FBF5F4013C05FB04F4AA
:100D7000A54208DC0021304600F010FAD8F808300F
:100D80003B44984205D0304600F006FA0020BDE80A
:100D9000F8836142304600F001FA01300FD0124A68
:100DA000D8F808303F1B47F001075F6013683046F2
:100DB0001B1B136000F0F0F90120BDE8F88300214F
:100DC000304600F0EBF9D8F80820831A0F2BDADD53
:100DD00043F001035360054B03491B68C01A0860C8
:100DE000D1E700BF380100208C060020400500201C
:100DF00000297CD0F8B50C46064600F0CBF954F833
:100E0000043C764FA4F1080523F001016818D7F8D7
:100E100008C04268844522F0030200F08380DB07AB
:100E2000426000EB020C33D454F8084CDCF8043078
:100E30002D1B2144AC6807F1080C644503F0010345
:100E400064D0D5F80CE0C4F80CE0CEF80840002BD4
:100E500000F0818041F001036B600160B1F5007F1B
:100E600022D27868CB080122490901338A40024323
:100E700057F833107A6007EBC302083AC5E902124B
:100E800047F83350CD603046BDE8F84000F084B9F3
:100E9000DCF80430DB072BD541F00103B1F5007F0E
:100EA00044F8043C0160DCD3B1F5206F4FEA5123D4
:100EB00053D28B0903F1390003F13802C300F8184B
:100EC000FB580838984203D161E09B68984204D0EF
:100ED0005A6822F003028A42F7D8D868C5E902307E
:100EE0008560DD603046BDE8F84000F055B97047D8
:100EF000114407F1080C836863453FD0C268DA608B
:100F0000936041F001036B606950A7E7002B5FD14C
:100F10000A44D0E90213CB60996042F001036B6090
:100F2000AA50B0E70A44D90707D454F8083CED1A90
:100F30001A44D5E90213CB60996042F001036B605B
:100F4000274BBD601B6893429DD8264B30461968DD
:100F5000FFF7F2FE97E71144CDE7142B08D9542B85
:100F60001DD80B0B03F16F0003F16E02C300A6E75F
:100F700003F15C0003F15B02C300A0E741F0010351
:100F8000C7E90455C5E902CC6B6069507BE7796815
:100F90009210012404FA02F20A437A609EE7B3F544
:100FA000AA7F06D8CB0B03F1780003F17702C300C8
:100FB00085E740F25452934206D88B0C03F17D0032
:100FC00003F17C02C3007AE74FF47E737E2276E75A
:100FD00041F001036B60016055E700BF380100205C
:100FE000440500208806002070B539B106460C463D
:100FF00008B1436B83B3B4F90C3013B9002528460C
:1010000070BD2146304600F0EDF8E36A054633B185
:10101000E169304698470028B8BF4FF0FF35A389F3
:101020001B061CD4216B41B104F14003994202D04C
:101030003046FFF7DDFE00232363616C21B13046AB
:10104000FFF7D6FE00236364FFF78EFB0023A38126
:10105000FFF78CFB284670BDFFF776FBCBE72169D5
:101060003046FFF7C5FEDDE7024B01461868FFF783
:10107000BBBF00BF00000020082802D14FF4805001
:10108000704708B500F07CF9162303604FF0FF307D
:1010900008BD00BF10B50C46B1F90E1000F076F98E
:1010A000002803DB236D0344236510BDA38923F4CB
:1010B0008053A38110BD00BF002070472DE9F0418F
:1010C0000C46B1F90C101F46CB05054616460BD44D
:1010D00021F48051A1813B46B4F90E1032462846D6
:1010E000BDE8F041FFF730BAB4F90E100223002238
:1010F000FFF718F8B4F90C10EAE700BF10B50C467A
:10110000B1F90E10FFF70EF8B4F90C30421C0EBF07
:1011100023F4805343F480532065A38110BD00BFA6
:10112000B1F90E1000F04CB8194B1B6883422ED059
:10113000416C70B5054681B100268C593CB1214601
:1011400024682846FFF754FE002CF8D1696C043659
:10115000802EF2D12846FFF74BFEA96B11B128462D
:10116000FFF746FE2C6C34B1214624682846FFF771
:101170003FFE002CF8D1E96C11B12846FFF738FE8C
:101180006B6B1BB12846BDE87040184770BD7047B7
:1011900000000020704700BF704700BF38B5074D02
:1011A0000022044608462A60FEF7ACFF431C00D02C
:1011B00038BD2B68002BFBD0236038BDBC06002057
:1011C00038B5074D0022044608462A60FEF782FF24
:1011D000431C00D038BD2B68002BFBD0236038BDEA
:1011E000BC060020B1F90C20F8B516070C460746DE
:1011F00049D4496842F400630029A3815FDDA56AF0
:10120000002D3ED0002112F480523E683960E16921
:1012100061D101233846A847451C02466BD0B4F97A
:101220000C30A56AE169580705D56368D21A236BAB
:101230000BB1E36BD21A00233846A847411C4CD1AE
:101240003968B4F90C301D293FD82F4ACA40D2075B
:101250003BD52269226023F40062A281DD044FF0B5
:101260000002626001D5002943D0216B3E6041B18C
:1012700004F14003994202D03846FFF7B9FD00233C
:1012800023630020F8BD0E69002EFAD00D680E60B1
:1012900092070CBF4B690023AD1B8B600CE0D4F8A8
:1012A00024C0E1692B4632463846E047B0F1000CD5
:1012B000A5EB0C05664406DD002DF0DCE1E7E16BF3
:1012C00000299CDCDDE7B4F90C3043F04003A38136
:1012D0004FF0FF30F8BD226DA5E7B4F90C3022695C
:1012E000226023F40062A281DB044FF000026260FE
:1012F000BBD52065B9E73B68002B90D01D2B01D0F2
:10130000162BE0D13E60BCE70100402010B504463A
:1013100082B008B1436B53B1B1F90C0008B902B007
:1013200010BD204602B0BDE81040FFF75BBF019141
:10133000FFF70AFA0199EFE7A0B138B50C4B1D6829
:1013400004460DB16B6B4BB1B4F90C0000B938BD5C
:1013500021462846BDE83840FFF744BF2846FFF73E
:10136000F3F9F1E7034A04490448FFF715BA00BF4F
:1013700000000020280100200D13000808000020B4
:10138000014B1868704700BF0000002038B50C46BC
:10139000084D8446114620461A4600232B606446B9
:1013A000FEF7A4FE431C00D038BD2B68002BFBD0F9
:1013B000236038BDBC060020E29AA0EFB88F204819
:1013C0006967682054656D70657261747572652017
:1013D0004465746563746564210A0000E29C85209D
:1013E00054656D7065726174757265204E6F726DB3
:0413F000616C0A0022
:1013F4000800002000000000000000004C05002050
:10140400B40500201C0600200000000000000000BD
:1014140000000000000000000000000000000000C8
:1014240000000000000000000000000000000000B8
:1014340000000000000000000000000000000000A8
:101444000000000000000000000000000000000098
:101454000000000000000000000000000000000088
:101464000000000000000000000000000000000078
:101474000000000000000000000000000000000068
:101484000000000000000000000000000000000058
:1014940001000000000000000E33CDAB34126DE6F5
:1014A400ECDE05000B00000000000000000000005E
:1014B4000000000000000000000000000000000028
:1014C4000000000000000000000000000000000018
:1014D4000000000000000000000000000000000008
:1014E40000000000000000000000000000000000F8
:1014F40000000000000000000000000000000000E8
:1015040000000000000000000000000000000000D7
:1015140000000000000000000000000003000000C4
:101524004C05002000000000000000000000000046
:101534003801002038010020400100204001002033
:1015440048010020480100205001002050010020E3
:101554005801002058010020600100206001002093
:101564006801002068010020700100207001002043
:1015740078010020780100208001002080010020F3
:1015840088010020880100209001002090010020A3
:101594009801002098010020A0010020A001002053
:1015A400A8010020A8010020B0010020B001002003
:1015B400B8010020B8010020C0010020C0010020B3
:1015C400C8010020C8010020D0010020D001002063
:1015D400D8010020D8010020E0010020E001002013
:1015E400E8010020E8010020F0010020F0010020C3
:1015F400F8010020F8010020000200200002002071
:10160400080200200802002010020020100200201E
:1016140018020020180200202002002020020020CE
:10162400280200202802002030020020300200207E
:10163400380200203802002040020020400200202E
:1016440048020020480200205002002050020020DE
:10165400580200205802002060020020600200208E
:10166400680200206802002070020020700200203E
:1016740078020020780200208002002080020020EE
:10168400880200208802002090020020900200209E
:101694009802002098020020A0020020A00200204E
:1016A400A8020020A8020020B0020020B0020020FE
:1016B400B8020020B8020020C0020020C0020020AE
:1016C400C8020020C8020020D0020020D00200205E
:1016D400D8020020D8020020E0020020E00200200E
:1016E400E8020020E8020020F0020020F0020020BE
:1016F400F8020020F802002000030020000300206C
:101704000803002008030020100300201003002019
:1017140018030020180300202003002020030020C9
:101724002803002028030020300300203003002079
:101734003803002038030020400300204003002029
:1017440048030020480300205003002050030020D9
:101754005803002058030020600300206003002089
:101764006803002068030020700300207003002039
:1017740078030020780300208003002080030020E9
:101784008803002088030020900300209003002099
:101794009803002098030020A0030020A003002049
:1017A400A8030020A8030020B0030020B0030020F9
:1017B400B8030020B8030020C0030020C0030020A9
:1017C400C8030020C8030020D0030020D003002059
:1017D400D8030020D8030020E0030020E003002009
:1017E400E8030020E8030020F0030020F0030020B9
:1017F400F8030020F8030020000400200004002067
:101804000804002008040020100400201004002014
:1018140018040020180400202004002020040020C4
:101824002804002028040020300400203004002074
:101834003804002038040020400400204004002024
:1018440048040020480400205004002050040020D4
:101854005804002058040020600400206004002084
:101864006804002068040020700400207004002034
:1018740078040020780400208004002080040020E4
:101884008804002088040020900400209004002094
:101894009804002098040020A0040020A004002044
:1018A400A8040020A8040020B0040020B0040020F4
:1018B400B8040020B8040020C0040020C0040020A4
:1018C400C8040020C8040020D0040020D004002054
:1018D400D8040020D8040020E0040020E004002004
:1018E400E8040020E8040020F0040020F0040020B4
:1018F400F8040020F8040020000500200005002062
:10190400080500200805002010050020100500200F
:1019140018050020180500202005002020050020BF
:10192400280500202805002030050020300500206F
:08193400FFFFFFFF00000200AD
:040000050800012DC1
:00000001FF
